:020000040000fa
:080000000002040000000000f2
:020000040000fa
:10000800c0dd0000ecdd00005803000012de000037
:1000180038de00005ede00005803000058030000d0
:10002800580300005803000058030000580300005c
:10003800580300005803000058030000580300004c
:1000480028e100005803000058030000580300008e
:100058005803000058030000fad0000058030000bd
:10006800580300005803000058030000580300001c
:10007800580300005803000058030000580300000c
:10008800e6d00000580300005803000058030000a1
:1000980058030000580300005803000058030000ec
:1000a80058030000580300005803000044d800001b
:1000b80058030000580300005803000058030000cc
:1000c80058030000580300005803000058030000bc
:1000d80058030000580300005803000058030000ac
:1000e800580300005803000058030000580300009c
:1000f800580300005803000058030000580300008c
:10010800dad7000058030000580300005803000025
:10011800580300005803000058030000580300006b
:10012800580300005803000058030000580300005b
:10013800580300005803000058030000580300004b
:10014800580300005803000058030000580300003b
:10015800580300005803000058030000580300002b
:10016800580300005803000058030000580300001b
:10017800580300005803000058030000580300000b
:1001880058030000580300005803000058030000fb
:1001980058030000580300005803000058030000eb
:1001a80058030000580300005803000058030000db
:1001b80058030000580300005803000058030000cb
:1001c80058030000580300005803000058030000bb
:1001d80058030000580300005803000058030000ab
:1001e800580300005803000058030000580300009b
:1001f800580300005803000058030000580300008b
:10020800580300005803000058030000580300007a
:10021800580300005803000058030000580300006a
:10022800580300005803000058030000580300005a
:10023800580300005803000058030000580300004a
:10024800580300005803000058030000580300003a
:10025800580300005803000058030000580300002a
:020000040000fa
:100400000f0022000eff22000e01880000000000f5
:100410000c000700a0c12c00010020000f00070005
:10042000000020000000e000020032000000020096
:10043000000000000ae20200000000000040da00b4
:100440000000fe00c08420000000e0000200320036
:10045000002020009001880000000600a102880012
:10046000800078000000eb001a003700e2804000b6
:1004700054a0b4009101ba00e280400054a0b4003e
:100480009102ba00e280400054a0b4000002eb00e8
:10049000472bde00f507b200a6018800602ce100c2
:1004a00008003a000049eb000201e80002003900b0
:1004b0003420ec0002f0a0008301e900f9ff3e00c7
:1004c000040037006128e100010032000082eb00e7
:1004d000040007001101ba000200e000e3ff3a0047
:1004e0000000060004d0a300e20f49001c00390000
:1004f000810278003549ba000201e80002003900a3
:100500003420ec0002f0a0008301e9000f0032006b
:100510002549ba000201e800020039003420ec004d
:1005200002f0a0008301e900080032000400e000ae
:100530000600320015c9ba000201e80002003900c5
:100540003420ec0002f0a0008301e9008180e80083
:1005500054a0b4000300e000e2ff3a0000000600ef
:100560009102ba00055978008301e900f7ff3200d3
:10057000c82ade00055978008301e900f3ff320044
:100580000400e000f1ff320011d9ba00eeff37009d
:10059000a4df04000000000092df0400000000005f
:1005a0008adf04000000000082df04000000000079
:1005b000bedf04000000000008e0040000000000ae
:1005c000e2df0400000000009ac304000000000005
:1005d000e8c304000000000036c40400000000006e
:1005e000dac5040000000000ccc3040000000000d5
:1005f0000cc00400000000002ec004000000000039
:1006000026bf04000000000074bf040000000000ca
:10061000a8bf040000000000dabf040000000000d2
:10062000c0be040000000000f2be04000000000094
:1006300052c004000000000092c00400000000004e
:1006400034c10400000000006ac104000000000082
:10065000cac004000000000000c104000000000047
:1006600042c204000000000098c204000000000024
:100670009ec1040000000000f4c10400000000005e
:100680007cd6040000000000fe040400000000000e
:100690002e05040000000000ec060400000000002d
:1006a0003e350400000000001e2e04000000000083
:1006b0000040da000000fe001000fa005007980029
:1006c0006107980072079800002220001007980028
:1006d00020222000200798004022200030079800a8
:1006e00080222000400798005e00900060004000db
:1006f000e20f500051003e00a0f38000e20f5000d6
:1007000008003a0000232000100798002023200052
:100710002007980040232000300798008023200005
:1007200040079800a0f38000e30f500008003a0053
:1007300000252000100798002025200020079800a1
:1007400040252000300798008025200040079800b1
:10075000a0f38000e40f500008003a00002b2000b6
:1007600010079800202b200020079800402b200025
:1007700030079800802b2000400798001e00900052
:10078000900078000000280000806000e00f50001a
:1007900008003a004e0090008000eb00010878004d
:1007a0001e009000100178000100280081007100f7
:1007b000010878002e009000900078000040200092
:1007c00000806000e00f500005003a002e0090000d
:1007d00010017800014020008100710001087800bc
:1007e0007e009000000f780010003700000000002d
:1007f0002e00900090007800001020000080600023
:10080000e00f5000faff32006e00900010407800b8
:100810008000fb003e009000010878006e00900010
:100820000000e800600798001e0fe9001e00780035
:10083000e00f5000edff3a0001003700000000001b
:100840007e0090000080fa00000006001200fa000e
:100850006007980071079800020f9800002220009e
:100860001007980020222000200798006022200016
:100870003007980080222000400798006e0090000a
:1008800060004000e20f500058003e00a0f38000de
:10089000e20f500008003a000023200010079800e3
:1008a00020232000200798006023200030079800b4
:1008b0008023200040079800a0f38000e30f500041
:1008c00008003a000025200010079800202520008d
:1008d0002007980060252000300798008025200020
:1008e00040079800a0f38000e40f500008003a0091
:1008f000002b200010079800202b200020079800d4
:10090000602b200030079800802b200040079800c3
:100910001e00900090007800000028000080600019
:10092000e00f500008003a004e0090008000eb00fd
:10093000010878001e0090001001780001002800d6
:1009400081007100010878000e089000000f780007
:100950001c003700000a20005007980003003700f1
:100960005e0090000000e900500798002e00900003
:100970001000780061006000e00f500003003a00b2
:100980005e009000e00f5000f5ff3a002e0090004e
:100990001000780061006000e00f50000d00320090
:1009a000fe0090003e0090001000780000407800ab
:1009b000804878007e0090000000e80070079800f2
:1009c0001e0fe9001e007800e00f5000e1ff3a0022
:1009d00001003700000000001e0078008e08900023
:1009e00000805000000f9800010037000000000058
:1009f0000e0890000080fa00000006000000fa00d7
:100a0000889fbe000004780001007800820478000e
:100a10008801780009017800110020009b1407006c
:100a2000890f5000010032000004eb00080078003c
:100a30004f04be000080fa00000006000000fa002b
:100a4000e80157004eb99700018e2100e04f2000c9
:100a5000f90007000080fa00000006000000fa001c
:100a600090017800e00f510002003a000308e9000d
:100a7000060037008080eb000041eb00934f11002f
:100a8000020032000308e8009300fb000100780038
:100a90000080fa00000006000200fa00000f780053
:100aa000e80157004eb997008e007800e052200010
:100ab000020007000080fa00000006001200fa00a1
:100ac000889fbe008a9fbe008c9fbe0002047800f3
:100ad000000f780011079800830078006400470039
:100ae0008b1707008004eb0049079800380798002f
:100af0005d022000be0590001b4078000086fb00d0
:100b00000c04fb000c06ea004f66de0008007800cb
:100b1000d2110700e00f50001b0032004e00900081
:100b20000000e80040079800120020008000eb0061
:100b30001e0090009e01780003000100000578006f
:100b40000a007800c5110700e00f5000f3ff3a00db
:100b5000ce009000e10f4500080032008100e9005e
:100b600041079800000178008a0078001e0090007c
:100b70009e01780003000100220037008100e90097
:100b8000410798001f0037008d0f540002003a0003
:100b90000c05e900190037000c0578001700370034
:100ba0004e0090000000e80040079800120020006e
:100bb0008000eb001e0090009e0178000300010001
:100bc000800078001b00fb00808f50000a0032007c
:100bd000e18f40007a0032004e0090000000e900f2
:100be000400798000001eb001e0090009e01780075
:100bf00003000100720037008b05e8000a05e900d8
:100c0000e7ff3b003e0190000c01410032079800d5
:100c10008d0f540003003200e00f5400b5ff3a007e
:100c200067003700924078000040eb00a3c2b30099
:100c300083cf500003003a000201e8003207980019
:100c400001407800604f98000000eb0060079800ba
:100c50000a0037006e009000f2ff2700820f50005c
:100c600004003200ea00b8000003b1008100400037
:100c7000610798000a05e8003a0798003e059000d1
:100c80001a4478008800fb0000fd2f00010040009e
:100c9000e90f5000efff360020e32100180d070098
:100ca000e00f5000030032000a05e8003a07980000
:100cb0000100370000447800784f98003e00900013
:100cc00081c6b300814f540004003a00904f1400d5
:100cd0000b003a00e6c0500006003700c1c6b30062
:100ce000814f540006003a00904f140004003a006f
:100cf000e5c04000714f98000000e8003007980000
:100d00003e0090009000fb0090e32100fc0c0700e7
:100d1000e00f50001a003a004e0090000000e8007a
:100d200040079800120020008000eb001e00900099
:100d30009e0178000300010000047800080078009c
:100d400046110700e00f5000f3ff3a00ce0090007c
:100d5000e10f4400080032008100e90041079800db
:100d600000017800880078001e0090009e01780045
:100d700003000100020037008100e90041079800ec
:100d80000e00780097040700e00f500003003c00bd
:100d9000e08f54000a003a00080037000e5090001f
:100da000e04f5000010032008904e8003e0090004e
:100db0000000e800300798004eff370080047800fc
:100dc000090078004f06be004f05be004f04be006c
:100dd0000080fa00000006000000fa00881f78007a
:100de0000204780008017800a60c07000800400003
:100df0004f0478000080fa00000006000000fa00ae
:100e0000881f780000047800e80157004eb9970069
:100e100088007800c06e200007000700e00f500037
:100e20000200350000044400004ceb004f04780041
:100e30000080fa00000006006200fa00889fbe00f1
:100e40008a9fbe008c9fbe00000578008104780058
:100e500002047800830078000e007800ac160700ca
:100e60005a079800690798000000eb00700f98007f
:100e70004ddc21008cdb2100fbff270018407800af
:100e80000085fb008a04fb000a05ea004f55de00de
:100e900050022000808f54000d003200e10f5500f9
:100ea0000b003a000a017800880078006e0090007c
:100eb000de0190000300010060079800e00f500081
:100ec0008a0032007e0890000000e800700f980051
:100ed0000a04440050022000808f540004003200b5
:100ee000e08f5400e5ff3a007e0890008000370054
:100ef0000000eb00500f9800400f9800300f980052
:100f0000200f9800100f9800000f980010179800fd
:100f1000070037000d005000000040008000460030
:100f20001e10900011007000101798000804e800cf
:100f3000984478008900fb0040dc2100700c070019
:100f4000e00f5000f3ff3a00a1c2b30081cf54007c
:100f50000d003a001e80e900000f780010007800b4
:100f600000179800e00f500005003d000000ea0067
:100f7000001798001e1090000020a0001017980085
:100f80000804e80010003700001798000900370037
:100f90008e1090008b8f500005003200ea09b800d7
:100fa00001fd2f0082804000008040000017980063
:100fb0000804e8001800fb0001fd2f0080804000bd
:100fc000e98f5000f2ff3600e0c2b300984f1000e6
:100fd000030032000080eb00600f98001a00370019
:100fe000a0c2b300d84f100006003a001e80e900ee
:100ff000000f780010007800600f98000804e800e7
:10100000110037000000eb00600f98000900370066
:10101000ee0890008b8f500005003200ea09b800fe
:1010200001fd2f008280400000804000600f98008a
:101030000804e8001800fb0001fd2f00808040003c
:10104000e98f5000f2ff3600984478008900fb00d9
:1010500000db21002a0c0700e00f500002003200e4
:101060000804e800010037008044780049679800d0
:1010700080c6b30080cf540004003a0098cf14001b
:101080000a003a006640500006003700c0c6b300b0
:1010900080cf540005003a0098cf140003003a00b6
:1010a00065404000406798000804e8001801fb0014
:1010b000630220008e8141008e0078000e80e800df
:1010c00010000700e00f500008003a006102200005
:1010d0008e8040000e80e80051150700e00f5000a0
:1010e000020035000804e80064ff37000080eb00d0
:1010f0004f06be004f05be004f04be000080fa0040
:10110000000006000000fa00889fbe008a1f7800d9
:1011100000047800824478000305780070c6b300ac
:1011200080cf540021003c0000c0e90080cf540073
:10113000dd003d007240500080cf54004c01320071
:101140000d003c006c40500080cf54005f013c001b
:1011500000c0e90080cf5400d3003d0050c2b3006e
:1011600080cf5400560132007c40400080cf5400b4
:1011700056013a00cc00370010c6b30080cf5400af
:10118000c900320004003c006940500080cf540088
:101190004e013a007000370030c6b30080cf5400d3
:1011a000180032000040e8000900370000c7b30013
:1011b00080cf54001f01320008003c0000c0e9004d
:1011c00080cf5400e400320063003c0065405000d2
:1011d00080cf54003d013a001000370050c7b300e3
:1011e00080cf54005c0032006340400080cf540048
:1011f000590032006540500080cf540033013a005e
:101200001b0137001181e900820878007800900006
:1012100000054500124d780032013700286090002b
:10122000c2c6b300824f500009003a001100780096
:1012300064025000840878001400be00140290007c
:101240004fa2de000401780084017800120037000c
:1012500012c7b300824f500003003200a2c6b30091
:10126000824f500006003a001101780068005100da
:10127000800878005001be004000be000600370024
:101280001180e9008008780010007800cf80de002f
:101290000101780082017800009cbe000294be002b
:1012a0002862900085c6b300854f52000e003200c0
:1012b00025c6b300854f520005003a000000fb0030
:1012c000cf80de000101780082017800090037003c
:1012d00045c7b300854f520003003200e6c242000a
:1012e000854f520005003a00cf80de0001017800f2
:1012f00082017800009cbe000294be003802be004d
:101300002803be0078009000e00f5200e08f5a00e2
:10131000e00f5b00e08f5b0003003d000001450033
:10132000d1c2b3000a0037008810900062816000cb
:101330000300320000014500b1c2b30004003700d1
:10134000e1806000530032000001450001c2b3009b
:10135000014978004d00370028609000c2c6b300f4
:10136000824f500007003a001100780064025000dc
:10137000840878001400be000001eb0082017800b0
:101380001200370012c7b300824f50000300320032
:10139000a2c6b300824f500006003a001101780047
:1013a00068005100800878005001be004000be0077
:1013b000060037001180e9008008780010007800ee
:1013c000010020000200200003002000009cbe005d
:1013d0000294be002862900085c6b300854f52007b
:1013e0000e00320025c6b300854f520005003a00ba
:1013f0000080fb000100200002002000030020000c
:101400000900370045c7b300854f52000300320082
:10141000e6c24200854f520005003a00010020005c
:101420000200200003002000009cbe000294be00c9
:101430000810900068006000160032003800be00fe
:101440002801be00e00f5000e08f5800e00f590067
:10145000e08f59000f00320080c7b30080cf5400e6
:101460000300320080c5b30080cf540009003a0069
:10147000f80090000101450000c3b3000049780066
:101480000100e80080004500894878000000e8007d
:101490007004980078009000000545006a049800e8
:1014a000894078006f00370028619000c0c4b30005
:1014b000804f510006003a00110178006800510089
:1014c000800878005001be004000be0005003700d3
:1014d0001101780064005100800878001000be00ff
:1014e000781d0700009cbe000294be00b80090006a
:1014f00078009000e08f500003003d00000145009f
:10150000d1c2b3000a0037008810900062816000e9
:101510000300320000014500b1c2b30004003700ef
:10152000e1806000050032000001450001c2b30007
:10153000014978000000e8007004980078009000ed
:10154000000545006a0498008900fb000800780047
:101550006b0007006500370028609000c3c6b30029
:101560001181e900834f5000260032000a003c0040
:10157000e4c15100834f50001f00320083c1e800d6
:10158000834f500013003200e8c15100834f5000d8
:1015900022003a000a00370043c7b300834f5000cf
:1015a00015003200e6c14100834f500012003200a6
:1015b000e9c15100834f500018003a000500370080
:1015c0008208780012007800485c90000848780093
:1015d0004600370082087800120278006808900000
:1015e000cf80de000101780082017800009abe0001
:1015f0000292be003d003700820878001200780099
:10160000090037008208780012017800680890000d
:10161000cf80de000089be00340037001180e90071
:101620008008780010007800680c900008087800a6
:101630002e0037001180e900800878001000780043
:10164000cf80de000101780082017800009cbe009e
:101650000294be0078009000000545006a049800de
:1016600081c7b30008007800a31207001f003700ed
:101670001180e90080087800100578006a0498005d
:10168000d80c9000e08f540004003d000a00780060
:10169000bf0a0700800478000700370009017800be
:1016a0008000eb000a007800e6110700e00f500010
:1016b000010032008a045000190c98000b0037001a
:1016c0007800900000054500050037007800900084
:1016d00000054500e0cf540001003a0059c2b300b4
:1016e000094d78000000e800700498000000eb004d
:1016f0004f0578004f04be000080fa00000006008d
:101700003c00fa00889fbe008a9fbe008c9fbe00ee
:10171000101f980001457800800078005101be003c
:101720004100be00201f9800311f9800421f980002
:10173000531f98001e19900052089000e00f5000af
:1017400002003d0060002000500998009e189000a3
:101750000e0078003c12070080017800e28f5100f3
:101760000c003a00300020009e199000900998006b
:10177000b1c9b30081404500c0b32100e1cf5000a2
:1017800001003e0080b321001e1a9000e40090008a
:101790000d003700e08f51001000340030002000b1
:1017a0009e1a9000900a9800b1c9b300814045008c
:1017b00040b42100e1cf500001003e0000b4210000
:1017c0001e1b9000e6009000b0487800b0687800da
:1017d0001040780090409800f6003700e08f5100ec
:1017e00003003a000e01780003197800ed0037007d
:1017f0006022b8006033b8002e189000be18900028
:101800004e199000de199000051c0700e00f5000f3
:1018100009003d002e189000be1890004e1990004f
:10182000de19900003f0a200201f9800311f9800dd
:10183000421f9800531f98001e027800cfa2de00be
:1018400072592700030020000400be008d1d070010
:10185000026a28001300200093080700640150006a
:10186000020f780017003b0063011100c0ff2f003a
:1018700000046100080fea000006eb008db42100af
:101880002e189000be1890004e199000de1990009e
:101890000900370061026400050032004362dd0088
:1018a000048246005403be004402be00d31c07005d
:1018b0000884d1000c06e800e00f5400f5ff3c005e
:1018c0001f003700e00f510023003200c8ff2f0037
:1018d00008046100080f78006022b80006002000ac
:1018e00007ff23000006eb008db421000400be00ba
:1018f0000601be00090037006102640005003200e5
:101900004362dd00048246005403be004402be0070
:10191000ba1c07000884d1000c06e800e00f540050
:10192000f5ff3c000002be000203be002e1890002e
:10193000be1890004e199000de199000c21b0700df
:101940000002be000203be00241f9800351f98004d
:10195000461f9800571f98009e1a90005509900046
:1019600060c6b300804f55000400320061002000c3
:1019700060c4b300804f550002003a001e03780097
:10198000ea00430082854000f38f550001003400d7
:101990003b01200002c3b30022479800e306470042
:1019a000360037002e189000be1890004e19900097
:1019b000de199000621c07000004be00e885550097
:1019c0004240a90012003400891c07000002be003a
:1019d0000203be002e189000be1890004e19900011
:1019e000de199000fa1c07006022b80046782d002e
:1019f00077192400811c07000002be000203be000c
:101a0000241f9800351f9800461f9800571f980004
:101a1000e88646008c0020000801be000c0037005c
:101a2000a400200005002000a00220000e004000bd
:101a3000ed1007005e109000ee1090007e119000f7
:101a40008e19900005c3b300856641000001be00f9
:101a5000e00f5100e08f5900050034000c06e9004a
:101a6000efff3b000200370006c3b3008666780034
:101a70000c06e900fcff3b00e8864600e08f5500bd
:101a80000a0034006022b8006033b8002e189000bd
:101a9000be1890004e199000de199000651b0700db
:101aa00080007800e08f5000beff3c0063014700db
:101ab000828256009e037800678f430000c3b30004
:101ac000030037008502e9001e0fe9000201e8006b
:101ad000924f1000fbff32001e189000d0089000bb
:101ae00060c6b300804f55000300320060c4b300ed
:101af000804f550002003a009e01e80009003700bf
:101b00001300200050c6b300804f5500050032007e
:101b10000a40780050c4b2008081fb008301e900d4
:101b2000cf19de0081814100858f51000100340012
:101b300085017800e08f51001a00350004c3b3001e
:101b4000858f510006003d0083004100694242003c
:101b500040c3b300914f100001003c0069425200a5
:101b600083027800010037008301e9008502e90063
:101b70008500410011437800844f5300faff320082
:101b800090c3b300804f520001003a008648e8003d
:101b9000e08f520003003d000201e9008301e800ec
:101ba0001e0fe8008a00fb001e0278001e1890003d
:101bb000050007004f06be004f05be004f04be00e3
:101bc0000080fa00000006000e00fa00889fbe00a8
:101bd0008a9fbe008c9fbe0000047800814478007c
:101be000020678000305780084057800e00f5500b0
:101bf00002003c001a002000ace7210060c6b300e0
:101c000080cf54000e00320060c4b30080cf540077
:101c10000b00320070c6b30080cf540003003200c6
:101c200070c4b30080cf540085003a00e48f4500b3
:101c30008300350058089000808f550080003d00db
:101c40008b05e80060c6b30080cf5400100032005e
:101c500060c4b30080cf54000d0032000810900023
:101c60006800600004003a0058089000800f55009a
:101c700001003d005a0c9800580890000b005000dd
:101c8000500c980002003b000000eb00500c980044
:101c900018089000e8009000e08f550028003c00f4
:101ca0008080400002c3b300824878000000e80052
:101cb000100c9800d8089000e08f500003003c0002
:101cc00088109000e88060000600320068019000f3
:101cd00000014100e1c2b300014978000000e800c2
:101ce000100c9800580890008b00ea00810f5000fb
:101cf00001003d008005ea008b00ea00210c9800fd
:101d0000808545005b0c98008a8f550001003400e7
:101d10008a0578003b0c9800e800900018089000b5
:101d2000008040000b0178008c007800d508070087
:101d3000580890008b0550004b0c9800920037001b
:101d40008b0f550019003d00008040000a0178000b
:101d50008c007800cb0807001808900000004500b0
:101d6000100c98000a8555002a0c9800d80890009d
:101d7000e08f500003003c0088109000e880600075
:101d800007003200e800900080804000e0c2b3000d
:101d900080487800380890000000e800300c980077
:101da00058089000400c98007700370000804000f1
:101db0000b0178008c007800b2080700180890002a
:101dc00000804500100c98000b055500d8089000c5
:101dd000e08f500003003c0088109000e880600015
:101de000060032006801900000014100e1c2b3002a
:101df000014978000000e800100c98005808900095
:101e0000800f55000100340000057800e8009000c4
:101e100018089000008040008b0046000a017800fe
:101e200098080700180890000a004000100c98005d
:101e3000580890000a0550002a0c980052003700fc
:101e400018089000e8009000808040009c487800ce
:101e50000000e800100c9800d8089000e08f5000b7
:101e600003003c0088109000e8806000060032000b
:101e70006801900000014100e1c2b300014978000f
:101e80000000e800100c980058089000e00f500087
:101e9000100034000a05e900800f550001003400ed
:101ea00000057800e80090001808900000804000cd
:101eb0008c00e8000a0178007208070018089000fa
:101ec0000a004000100c9800580890000a055000c5
:101ed0002a0c9800e800900018089000008040004c
:101ee000095878008006e800e08f550004003500ae
:101ef000b1c2b300014878000d0678000400370035
:101f0000d1c2b300014878000d0678008b05ea00c5
:101f10008004eb0009003700a20020008b0078004d
:101f200002004700380f07005e059000ee059000a4
:101f30000bf77c008904e8008a057800e08f5500e3
:101f4000f5ff3c00e08f540008003a000d067800d1
:101f500000c3b300005e7800040037008904e90084
:101f60006ec07c0001c3b300015e4000e08f5400ee
:101f7000faff3a00e8009000180890000080400046
:101f8000000656003c0c9800081090007400600099
:101f9000f00f50000e003a00980890007800900072
:101fa00000804000a808900001004000b8089000a0
:101fb00001004000c808900001004000f8089000af
:101fc000810f500002003d0000805000000c98007e
:101fd0004f06be004f05be004f04be000080fa0051
:101fe000000006000000fa00881f78000004780056
:101ff0000040eb000054980038009000104078003a
:1020000041c6b300814f5000320032001c003c003a
:10201000fdc05000814f50000a003c0081c0e90023
:10202000814f50002e003d0051c2b300814f50003f
:1020300071003200fcc04000814f50008d003a001a
:102040002700370011c6b300814f50002400320032
:1020500007003c00e9c05000814f50001d003200d5
:10206000e3c04000814f500082003a007d003700fd
:1020700031c6b300814f50007e003a001300370094
:10208000e1c6b300814f50001800320005003c004b
:10209000e7c05000814f50001100340081c0e800bb
:1020a0000700370001c7b300814f5000090034001a
:1020b000e5c04000814f500006003200e3c0400000
:1020c000814f50006b003a00020037008000eb00a7
:1020d00065003700080078006913070066003700c4
:1020e000080078006700070063003700e8489000a8
:1020f00010002000e0cf50005f003a00f848900048
:10210000c3c6b3002801900083cf50002b003200db
:102110000a003c00e4c1510083cf5000210032008e
:1021200083c1e80083cf500014003200e8c15100a1
:1021300083cf500028003a000a00370043c7b3009d
:1021400083cf500017003200e6c1410083cf50001a
:1021500014003200e9c1510083cf50001e003a0044
:10216000060037000281e9002204980092007800fe
:10217000084c9000884878003f0037000281e90051
:10218000220498009200780048029000cfa2de005e
:1021900005037800860378008498be008690be0010
:1021a000350037000281e90022049800920078008f
:1021b00048049000880878002f0037000281e90069
:1021c000220498009200780048019000cf91de0030
:1021d0008288be0028003700280090000080e900b7
:1021e0002004980010007800480490000808780047
:1021f0001000200020003700480090000000e80098
:102200004004980098017800120020008000eb0044
:1022100018009000030001008000780010002000ea
:1022200052022000828f50001300320048009000bc
:10223000e18f4000070032000000e90040049800f0
:10224000980178000001eb001800900003000100e5
:10225000080037000000e900400498000100780001
:10226000050037008080eb00080078008d1407001f
:10227000010037000000eb004f0478000080fa00f6
:10228000000006004800fa00889fbe008a9fbe003a
:102290008c9fbe000004780068009000e00f5000a2
:1022a00001003c00f0ff27000000e9005004980006
:1022b000480090000000e800400498009801780071
:1022c000120020008000eb001800900003000100c5
:1022d00080047800b0022000808f54000300320098
:1022e0000080e800808f540015003a00094f9800e4
:1022f000d80090008100e900510498004800900047
:102300000a0033000000e8004004980098017800bb
:10231000120020008000eb00180090000300010074
:102320008004780069054700060037000000e800d7
:10233000400498008084eb0069054700bc0037002a
:102340006805470000032000808f540035003a00e4
:10235000d80090008100e9005104980048009000e6
:102360000c0033000000e800400498009801780059
:10237000120020008000eb00180090000300010014
:102380008004780080072000808f54000c00320009
:10239000060037000000e80040049800ad0020006f
:1023a0008084eb001bc0b30071013700ad0020003a
:1023b0001bc0b30080052000808f54006c013a00e0
:1023c00000c3b300005d780080c7b300005d7800f3
:1023d000d80090008100e900510498004800900066
:1023e0000a0033000000e8004004980098017800db
:1023f000120020008000eb00180090000300010094
:10240000800478006d012000040037000000e8001f
:10241000400498006d0120008084eb008045eb00b3
:1024200053013700e0062000808f54000300320083
:10243000e0042000808f54007a003a00e0c6b30028
:10244000005d7800d80090008100e90051049800f8
:1024500048009000180133000000e8004004980094
:1024600098017800120020008000eb001800900016
:10247000030001008004780010062000808f5400c3
:102480000300320010042000808f540010013a0035
:1024900010c6b300005d7800d80090008100e9000c
:1024a0005104980048009000030133000000e80048
:1024b0004004980098017800120020008000eb0092
:1024c000180090000300010080047800480090008c
:1024d000e1062000818f540003003200e104200057
:1024e000818f540082003a00d80090008100e900fa
:1024f000510498000d0033000000e80040049800eb
:1025000098017800120020008000eb001800900075
:10251000030001008004780080022000fc052000f8
:10252000808f540014003200030037000000e800e0
:10253000400498000b003700e18f4400090032008e
:10254000480090000000e9004004980098017800dd
:102550000001eb00890078001800900003000100e2
:102560002e003700480090000000e9004004980069
:102570008084eb0029003700d80090008100e9003a
:102580005104980048009000090033000000e80062
:102590004004980098017800120020008000eb00b1
:1025a0001800900003000100800478000300370049
:1025b0000000e800400498008084eb0009007800e7
:1025c000180b070080057800e08f5500eaff3a00fd
:1025d0008c8f5400e8ff320090022000808f54005e
:1025e0000e00320048009000e18f440008003200e5
:1025f0000000e90040049800980178000b01780081
:102600008900780018009000030001001e023700c6
:102610000000e900400498001b023700e0c6b30048
:10262000bd00370090062000808f54000500320066
:10263000ad0020008045eb0090042000808f540006
:10264000cb003a0090c6b300005d7800d80090003f
:102650008100e90051049800480090009600330082
:102660000000e80040049800980178001200200063
:102670008000eb0018009000030001008004780047
:10268000e0062000808f540003003200e0042000a8
:10269000808f54008e003a00e0c6b300005d7800e1
:1026a000d80090008100e900510498004800900093
:1026b000810033000000e800400498009801780091
:1026c000120020008000eb001800900003000100c1
:1026d000800478004800900061062000818f54003b
:1026e0000600320061042000818f54000300320094
:1026f000e18f440079003a0080003700d800900054
:102700008100e900510498000d0033000000e8004a
:102710004004980098017800120020008000eb002f
:102720001800900003000100800478004800900029
:1027300091062000818f54001600320004003700fb
:102740000000e800400498008084eb000d00370092
:1027500091042000818f54000e003200e18f44006c
:10276000080032000000e900400498009801780059
:102770000001eb00890078001800900003000100c0
:1027800064003700480090000000e9004004980011
:1027900060003700d80090008100e90051049800e3
:1027a000450033000000e8004004980098017800dc
:1027b000120020008000eb001800900003000100d0
:1027c00080047800e0062000808f5400030032006f
:1027d000e0042000808f54003d003a00d8009000b3
:1027e0008100e90051049800480090003200330055
:1027f0000000e800400498009801780012002000d2
:102800008000eb00180090000300010080047800b5
:1028100090062000808f54000300320090042000b6
:10282000808f54002a003a00d80090008100e9000f
:1028300051049800480090001f0033000000e80099
:102840004004980098017800120020008000eb00fe
:102850001800900003000100800478004007200069
:10286000808f54000300320040052000808f540008
:1028700017003a00d80090008100e9005104980048
:10288000480090000c0033000000e800400498006d
:1028900098017800120020008000eb0018009000e2
:1028a000030001008004780090072000808f54000e
:1028b00004003a00170037000000e80040049800c8
:1028c0000e00370090052000808f54001100320068
:1028d000e18f440009003200480090000000e90048
:1028e00040049800980178000001eb00890078000e
:1028f0001800900003000100040037004800900019
:102900000000e900400498008084eb008045eb0063
:102910005d01370060c6b300005d78001bc0b300e6
:1029200059013700d80090008100e9005104980057
:1029300048009000090033000000e80040049800bf
:1029400098017800120020008000eb001800900031
:102950000300010080047800030037000000e80055
:10296000400498008084eb001bc0b30001003700d6
:102970000c0320008c8f5400eaff3200e0cf55009a
:102980000200320000032000005d78000006eb002a
:102990002c2798001b003700ae2090003402200046
:1029a000848f500004003c00095d78008100e8003d
:1029b00021279800010037000c06e800d80090009d
:1029c0008100e9005104980048009000090033009c
:1029d0000000e800400498009801780012002000f0
:1029e0008000eb00180090000300010080047800d4
:1029f000030037000000e800400498008084eb00ea
:102a00001bc0b300e18f44001b0032000d017800b1
:102a10008900780020de21000a0d0700e00f500039
:102a2000ddff3a00e1022000818f540012003a00dd
:102a3000095d7800580190000201e90052049800f5
:102a4000c8009000090033008100e80041049800ac
:102a50009801780012002000800078001800900093
:102a60000300010080047800030037008100e800c3
:102a7000410498008084eb00ae229000e08f520069
:102a800039003a00160037000c06e900d800900023
:102a90008100e90051049800480090000b003300c9
:102aa0000000e8004004980018027800120020009e
:102ab0008000eb001800900033279800040001000c
:102ac00080047800be219000030037000000e80079
:102ad000400498008084eb001bc0b3000100370065
:102ae00003032000838f5400e7ff3200e00f5600fd
:102af0001d003d0000032000005d78000c06e8008a
:102b0000190037002e23900037022000870f530052
:102b100003003c00095d78000603e80026279800c2
:102b2000d80090008100e90051049800480090000e
:102b3000090033000000e800400498009801780084
:102b4000120020008000eb0018009000030001003c
:102b500080047800030037000000e800400498007b
:102b60008084eb001bc0b300e18f440006003200fc
:102b70000d0178008900780020de2100b10c0700eb
:102b8000e00f5000dfff3a00e0cf55006f00320049
:102b9000ea8f560005003a0050062000808f54004e
:102ba0000800320050042000040037000007200015
:102bb000808f54000300320000052000808f5400f5
:102bc00062003a00095d7800d80090008100e900b9
:102bd00051049800480090001d0033000000e800f8
:102be0004004980098017800120020008000eb005b
:102bf000180090000300010080047800b00220005b
:102c0000808f540003003200d0022000808f5400d7
:102c100012003a00095d7800d80090008100e900b8
:102c20005104980048009000090033000000e800bb
:102c30004004980098017800120020008000eb000a
:102c400018009000030001008004780003003700a2
:102c50000000e800400498008084eb008045eb0011
:102c60000303200014003700d80090008100e90021
:102c700051049800480090000b0033000000e80069
:102c80004004980018027800120020008000eb0039
:102c90001800900033279800040001008004780099
:102ca000be219000030037000000e80040049800b7
:102cb0008084eb001bc0b300838f5400eaff320016
:102cc000e0cf55000300320000032000005d7800d3
:102cd0001bc0b3008001eb0018003700e78f5100e4
:102ce00002003c00095d78008301e800d8009000f4
:102cf0008100e90051049800480090000b00330067
:102d00000000e8004004980018027800120020003b
:102d10008000eb00180090003327980004000100a9
:102d200080047800be219000030037000000e80016
:102d3000400498008084eb001bc0b30000fd2f000e
:102d400009004000e90f5000e4ff36004800900001
:102d5000e18f4400080032000000e90040049800c0
:102d6000980178000001eb008900780018009000bd
:102d700003000100020037000000e9004004980051
:102d8000e0cf550007003a000000eb00e8004700e4
:102d9000810f550037003a00e18f440035003a00ba
:102da00033003700004deb00e84890001000200091
:102db000e0cf50002f003a00ea8f560007003c0099
:102dc0006161b9008000eb00680047001e13070036
:102dd000009fbe000297be000a0037006011b800d5
:102de0008000eb006800470017130700009fbe003b
:102df0000297be004261dd00cf91de000e00780038
:102e00009712070010c0b30000549800f8489000d3
:102e100028009000c2c6b30082cf500003003200e9
:102e2000c2c4b30082cf5000080032000080e90025
:102e300020049800100478003e00be002e01be0061
:102e4000e5170700008cbe00070037000080e9008e
:102e500020049800100078003e02be002e03be0041
:102e60000498be000690be0010002000010037004c
:102e7000090078004f06be004f05be004f04be009b
:102e80000080fa00000006008006eb000d067800c6
:102e9000bbff37002200f8002400f8002600f800ed
:102ea0000100b8000000e9004400f800010f200014
:102eb00021028800820078003800f8003a00f8000b
:102ec0003c00f8003e00f8004000f80000800800d8
:102ed00004000000b30278000500ca00b4027800c4
:102ee0000500c9003200cc004000f9003e00f900a6
:102ef0003c00f9003a00f9003800f90001007800c0
:102f00004400f9002600f9002400f9002200f9002d
:102f1000000006002200f8002400f8002600f80057
:102f2000889fbe008a9fbe008c9fbe004400f800b0
:102f30000d0f20002d028800830678000106e900ad
:102f40008205e90081804000020141000000e900a3
:102f500024003500050578003800f8003a00f80034
:102f60003c00f8003e00f8004000f8000b8008002c
:102f700014000000040478008a0478001201c300e1
:102f80003800f8003a00f8003c00f8003e00f80075
:102f90004000f8000c8008000300000038037800af
:102fa000990378001201c600828444004000f900b1
:102fb0003e00f9003c00f9003a00f9003800f90041
:102fc0003300cd000a85e8004000f9003e00f9001a
:102fd0003c00f9003a00f9003800f9000102420013
:102fe000daff37000d0078004400f9004f06be00fc
:102ff0004f05be004f04be002600f9002400f90072
:103000002200f900000006002200f8002400f80069
:103010002600f8004400f800050f20002502880073
:103020000100b8000000e900820078003800f800d4
:103030003a00f8003c00f8003e00f8004000f800bc
:103040000080080002000000b30278001301c000f5
:103050003200cd004000f9003e00f9003c00f900cc
:103060003a00f9003800f900010078004400f90046
:103070002600f9002400f9002200f90000000600f3
:103080002200f8002400f8002600f8002800f800cc
:103090002a00f8002c00f8000100b8000000e90048
:1030a0004400f800010f200021028800820078000f
:1030b0003800f8003a00f8003c00f8003e00f80044
:1030c0004000f8000080080005000000b30278000e
:1030d0000500ca00b40278000580ca000030cb00a9
:1030e0003200cc004000f9003e00f9003c00f9003d
:1030f0003a00f9003800f900010078004400f900b6
:103100002c00f9002a00f9002800f9002600f90037
:103110002400f9002200f900000006008202780075
:103120000000e9000102e900818040003800f80059
:103130003a00f8003c00f8003e00f8004000f800bb
:103140000480080011000000030278003800f80035
:103150003a00f8003c00f8003e00f8004000f8009b
:1031600000800800010000001419780001024200ec
:103170004000f9003e00f9003c00f9003a00f90077
:103180003800f900000000008381e8000000000022
:103190004000f9003e00f9003c00f9003a00f90057
:1031a0003800f90005007800000006002200f80051
:1031b0002400f8002600f8004400f800040f200066
:1031c00024028800010278000000e9003800f800bd
:1031d0003a00f8003c00f8003e00f8004000f8001b
:1031e0000080080004000000b20278000500ca0058
:1031f000b30278000500c9003100cc004000f9009e
:103200003e00f9003c00f9003a00f9003800f900ee
:10321000040078004400f9002600f9002400f900b9
:103220002200f900000006002200f8002400f80047
:103230002600f800889fbe008a1f78004400f8002e
:10324000070f200027028800821f78008103e90011
:103250000005eb003800f8003a00f8003c00f800e8
:103260003e00f8004000f80007800800140000004d
:1032700003047800840478001201c3003800f800c9
:103280003a00f8003c00f8003e00f8004000f8006a
:103290000a80080002000000b802780029037800c4
:1032a0001201c4004000f9003e00f9003c00f900a2
:1032b0003a00f9003800f9003200cd000482e8003d
:1032c0000a05e8004000f9003e00f9003c00f90062
:1032d0003a00f9003800f9000482e9008381e8002f
:1032e00001055000210034000a05e9003800f8000b
:1032f0003a00f8003c00f8003e00f8004000f800fa
:103300000a80080013000000030478008404780099
:103310001201c3003800f8003a00f8003c00f80041
:103320003e00f8004000f80007800800020000009e
:10333000b8027800290378001201c4004000f900a7
:103340003e00f9003c00f9003a00f9003800f900ad
:103350003200cd008381e8004000f9003e00f90012
:103360003c00f9003a00f9003800f9008703e90051
:10337000210035003800f8003a00f8003c00f80061
:103380003e00f8004000f80007800800140000002c
:1033900003047800840478001201c3003800f800a8
:1033a0003a00f8003c00f8003e00f8004000f80049
:1033b0000780080002000000b802780029037800a6
:1033c0001201c4004000f9003e00f9003c00f90081
:1033d0003a00f9003800f9003200cd008381e8009e
:1033e0008703e9004000f9003e00f9003c00f900c5
:1033f0003a00f9003800f9004f0078004400f90065
:103400004f0578004f04be002600f9002400f900a3
:103410002200f900000006003600f8008101780063
:103420000000e90000800900b2187800030078006d
:103430003600f90000000600840378008102e900ec
:103440008502d000050342008102d1008502e90017
:103450003800f8003a00f8003c00f8003e00f800a0
:103460004000f80005800800020000009602780085
:1034700017137800851b78004000f9003e00f90022
:103480003c00f9003a00f9003800f9001419020074
:1034900000000000000006002200f8002400f800f0
:1034a0002600f8004400f800040f200024028800e1
:1034b0000000e9001201c3003800f8003a00f800eb
:1034c0003c00f8003e00f8004000f80000800800d2
:1034d0000200000031027800b20278001201c00040
:1034e0004000f9003e00f9003c00f9003a00f90004
:1034f0003800f9000000cd004400f9002600f90072
:103500002400f9002200f90000000600b102780052
:103510000009eb000002e90007003400b101780067
:103520000328e10002003c008302780004095000f7
:103530000402e900f9ff3c000500780000000600e5
:10354000b10278000009eb000002e9000700340036
:10355000b10178000328e100020035008302780001
:10356000040950000402e900f9ff3c00050078005e
:10357000000006002200f8002400f8002600f800f1
:103580004400f800040f200024028800811f780006
:103590000000e9003800f8003a00f8003c00f800ac
:1035a0003e00f8004000f800008008000300000022
:1035b00032027800b30278001301c0003100cd0060
:1035c0004000f9003e00f9003c00f9003a00f90023
:1035d0003800f9004f0078004400f9002600f90097
:1035e0002400f9002200f900000006002200f80083
:1035f0002400f8002600f8004400f800030f200023
:1036000023028800810178000000e90004002800fe
:103610001201c3003800f8003a00f8003c00f8003e
:103620003e00f8004000f8000080080003000000a1
:10363000b20278001201c0003100cc001201c300b8
:103640004000f9003e00f9003c00f9003a00f900a2
:103650003800f900030078004400f9002600f90062
:103660002400f9002200f900000006002200f80002
:103670002400f8002600f8004400f800020f2000a3
:10368000220288000000e9001201c3003800f8009f
:103690003a00f8003c00f8003e00f8004000f80056
:1036a0000080080001000000310278001001f000e5
:1036b0004000f9003e00f9003c00f9003a00f90032
:1036c0003800f9000000cd004400f9002600f900a0
:1036d0002400f9002200f900000006002200f80092
:1036e0002400f8002600f8004400f800040f200031
:1036f00024028800811f78000000e900030278009e
:103700003800f8003a00f8003c00f8003e00f800ed
:103710004000f8000080080002000000b2027800bb
:103720001301c0003100cd004000f9003e00f90057
:103730003c00f9003a00f9003800f9004f00780029
:103740004400f9002600f9002400f9002200f900e5
:10375000000006002200f8002400f8002600f8000f
:103760002800f8002a00f8002c00f8004400f800b7
:10377000040f200024028800010278000000e90004
:103780003800f8003a00f8003c00f8003e00f8006d
:103790004000f8000080080005000000b202780038
:1037a0000500ca00b30278000580ca000030cb00d3
:1037b0003100cc004000f9003e00f9003c00f90067
:1037c0003a00f9003800f900040078004400f900dc
:1037d0002c00f9002a00f9002800f9002600f90061
:1037e0002400f9002200f900000006003600f8006d
:1037f000020378000002d0008102e9008200780014
:10380000030178000c1a02000000000004004000d0
:1038100001002000058009000118780006007800ea
:103820003600f9000000060003f0a200889fbe00e9
:103830008a9fbe008c1f7800150107001c01330011
:103840006450e1004f0032006420e1005200320079
:1038500003826c0007003b000905d0000306d0007e
:10386000820f54000c065d00020039000200320095
:1038700089017800030678008582550004003d0028
:103880000003fd008103fd008502ea008b854200f4
:10389000840f720002003b0060001000e0801800fe
:1038a0006011b8000005eb007a28e1000a00390039
:1038b00006007800c75ddd00f707b200878075005d
:1038c0002d003700828171000a01780061056000d7
:1038d0008180d1000080d3008502e900f9ff3b0020
:1038e000060440008784480002003b006004140086
:1038f000e0841c000988a300070032008a8171005f
:1039000082817100610164008904d1000884d300c0
:103910008b05e800170037000978a30013003a0070
:103920000b00e000130034008b05e900080444009c
:1039300089844c000a4474000978a3000d003a0001
:103940000b00e000070034008b05e9000804440088
:1039500089844c0001003a000b0020000978a30084
:10396000f7ff32000001eb00020037008281710096
:103970000a0178008b0007000cf0a70001f0a000fe
:10398000d40037006420e10002003a00838f6c000d
:10399000d40033000801be000200be00cd00370095
:1039a000889fbe008a9fbe008c1f7800b800070069
:1039b000bf00330003866c006450e1002e0032002b
:1039c0006420e100330032006150e1002f0032003a
:1039d0006120e1003100320085855500eb07b00021
:1039e00009002000080420000500370008044400f6
:1039f00089844c000a0031000603430087834b0092
:103a00000001530081815b00f8ff33000203be0018
:103a10000800a0000804440089844c00f6ff390027
:103a2000c639dd008301730001003200130020005d
:103a30008904d1000884d3000998a300050032004e
:103a40000800a7000300a0008904d1000884d30067
:103a50008b05e8008904d1000884d3000001eb0045
:103a60000281d2004f00070001f0a1000cf0a70076
:103a700001f0a000970037006420e10099003200b7
:103a80000801be000200be00f7ff37006120e10020
:103a9000940032006000b800f3ff370000002000ff
:103aa00001f82700f0ff3700839f68000100e00065
:103ab00002003d0060001000e08018000300e000fc
:103ac00002003d0060011100e0811900cb000700f9
:103ad0004f00e00002003b0060001000e080180092
:103ae0000000060014002000fe003700f4ff2f0045
:103af000fc0037000001be00500007000470a70062
:103b000003f0a1006509b100160032000d00350078
:103b10006828e10006003500f0ff2f00f1ff2700c4
:103b20000300e00013003b00010028000000050036
:103b300000004000818048008502e900fcff3a0057
:103b400008003700f88f420002003c008000eb00c4
:103b5000000005008100d1000080d3008502e8004c
:103b6000fcff3a000300e00002003b006000100090
:103b7000e0801800000006004f89de008201780016
:103b8000f30037000001eb00af0007000400320033
:103b90000200200003f8230001f0a70022ff070025
:103ba0000000060081002000618055000b003d00f0
:103bb0000b00200061fe2f000100e1001d00340019
:103bc00082817100610164008904d1000884d300fe
:103bd0000000e800faff3a00710020006100640074
:103be000030070000200600009003200610444001c
:103bf000e0844c000988a500050032008b05e80030
:103c00006808e10002003a008904d1000884d3006a
:103c1000f20f20000258e10005003d00c75ddd0005
:103c2000f907b200898075000800780000000600de
:103c30000bf827008b00780000000500c70ade00a3
:103c4000f107b200f50fb20008003200e1cf4200e8
:103c5000020032000170a00024000500810f7000f6
:103c6000010032000408050044000500810f7000c7
:103c700002003a00140005008502e900000040003f
:103c800081c04800fcff3b000170a000240005003b
:103c90000004be00e9ff07000003be000405be00eb
:103ca0000200be00e5ff0700844f7500000006001b
:103cb0000200be006450e100050036006420e1000f
:103cc000020036000968a30001003a000800be00a7
:103cd0000160a0004f0678004f05be004f04be00f3
:103ce00000000600f0ff2f00f1ff2700f9ff37006a
:103cf000811f78000100e00002003d00600010001c
:103d0000e08018000300e00002003d0060011100a7
:103d1000e0811900490007004f00e00002003b006d
:103d200060001000e080180000000600889fbe00c0
:103d30008a9fbe008c1f7800d5ff0700dcff330090
:103d400003866c006450e100240032006420e1002e
:103d5000270032006150e100220032006120e100c2
:103d6000210032008b854200eb07b1000134b8001e
:103d7000003ab8000804420089844a00013ab800b9
:103d80000030b8008880400009014a000400330078
:103d90000000400081804800020149008b05e900d5
:103da000c909dd008301700001003200130020000a
:103db000c814de004814dd004709de001200b2001e
:103dc000c808de000884700076ff070001f0a1003b
:103dd0000cf0a70001f0a000beff37006120e10059
:103de000c0ff32000801be000200be00f7ff37002e
:103df0006150e100fcff3a00baff37006022b800d2
:103e0000060220000000d0008180d2000482d2008f
:103e10008582d2000000a0000202520083825a0074
:103e2000030031000202420083824a000000a10028
:103e30000603e900f3ff3a0000000600efff070069
:103e40000400be0000000600889fbe008a9fbe00de
:103e50000003be0079ff07008505780082815200cb
:103e6000020020006220e10004003a00f307b100e4
:103e7000040035007718e100040035000600be009c
:103e8000140037006000b8000f003700f50f200065
:103e9000faff2f008502d1000a85d3008301e900d3
:103ea000fcff3b008184620000046500890f740000
:103eb000f2ff32008582ea000a85ea00818462000e
:103ec0000004650037ff070007f0a70001f0a0001d
:103ed0000081eb000200e0004f05be004f04be0071
:103ee00000000600889fbe008a9fbe00841f7800e5
:103ef00067ff07004f00780011003300f0ff2f002c
:103f0000838f6c0006003b00040565000a00a700d3
:103f10000800370009f0a600100020000800370054
:103f2000820f5400838f5c000300390010002000d2
:103f300001003e000000200009f0a7000000ea0098
:103f40004f05be004f04be000000e0000000060068
:103f5000881f7800030478000300e00007003d009c
:103f600060001000e080180060011900e081190075
:103f700002003b0001f02d000300370004000700a1
:103f800008f0a70001f0a0004f0478000000060030
:103f9000889fbe008a9fbe000082700004027100ec
:103fa00004827100260032000004be000200be0040
:103fb0006011b8006b092000950220000182cf003b
:103fc0000a0039000541b1000082cf000700390026
:103fd0000541b1000982cf00040039000541b1005c
:103fe0000882cf00010039000541b10005425200ae
:103ff000120032000a003b008281710061016400fe
:104000008100d1000080d3008984d3000884d300cc
:104010008b05e8000442e800f7ff3a00070037008c
:104020000804440089844c00000048008180480056
:104030008b05e9000442e900f9ff3a00d9fe0700c8
:104040004f05be004f04be0000000600800078004f
:104050001104b100030035009101b10001003c00e2
:104060000050a00000000600800078001106b1009a
:10407000030035009101b10001003c000050a10097
:10408000000006000000fa008001780002003700fe
:10409000b15978000201e900e00f5100fcff3a003d
:1040a0000080fa00000006000000fa00800178009d
:1040b00002003700815978000201e900e00f510049
:1040c000fcff3a000080fa00000006000000fa0041
:1040d000018e2100de040700800078000080eb00e4
:1040e000e08f500004003500018e2100a000200068
:1040f000ac0407004f80de000080fa0000000600dc
:104100000000fa0003003700e04f510005003200c4
:104110000000e80010417800814f5100faff3a009a
:10412000010037000000eb000080fa0000000600ec
:104130000000fa0004003700e04f5100090032008f
:104140000000e8008100e80010417800914f510024
:10415000f9ff320010002000030031000080eb0066
:10416000010037000000eb000080fa0000000600ac
:104170000000fa008001780031417800825978000f
:10418000e04f5100fcff3a000080fa0000000600fa
:104190000000fa0080007800010037008100e8008c
:1041a0000041eb00914f1100fcff3a0000805000ed
:1041b0000080fa00000006000000fa000c00370042
:1041c0009041780091cf510004003200100020008f
:1041d0000c0031000080eb000a003700e0cf5100f6
:1041e000070032000000e8008100e8000201e90059
:1041f000e00f5100f2ff3a000200780001003700a2
:104200000000eb000080fa00000006000000fa0049
:104210008001780003003700845978008100e800ad
:104220000201e900e00f510006003200114278005f
:10423000e04f5200f8ff3a00020037008059eb00cf
:104240000201e900e00f5100fcff3a000080fa0093
:10425000000006000000fa00889fbe00810478007c
:10426000e00f500002003a00c8f380000100370060
:10427000000478000800be00340507000004440074
:104280000040eb00984f100004003a0060e7210066
:10429000c0f388000004eb00080037000800be00ef
:1042a00009050700000044008040eb0090cf10009b
:1042b000010032000058eb00c0f3880008007800cd
:1042c0004f04be000080fa00000006000400fa005f
:1042d000889fbe008a9fbe00800578000105780097
:1042e000e00f550001003a000e0578008b047800bd
:1042f000010037008904e800194478000800fb0039
:1043000012079800d50307001e019000e00f50002f
:10431000f8ff3a00d0c2b300804f540003003200cf
:1043200000c0e900804f540002003a008904e80010
:1043300001003700004478008a0078000900780006
:10434000100207009a8f540001003a000b0d78000c
:104350009a8f550003003a00e00f5000e08f58009c
:104360000f003a00b2c2b300824f540004003a007a
:10437000e00f5000e08f580015003d0008003700a6
:10438000d2c2b300824f540011003a000200200054
:1043900003002800820f5000838f58000a00360067
:1043a0002002200020f38800f0ff2f00f1ff2700fb
:1043b000d2c2b300824f540005003a000000200032
:1043c000010028000200370060001000e0801800a3
:1043d0004f05be004f04be000080fa00000006003a
:1043e0000000fa00889fbe000004be00e08f540069
:1043f000090032008190210000d021001404070040
:1044000081902100090078001104070081902100ab
:10441000d0d021000e040700819021000800780010
:104420000b0407008190210020d12100080407001f
:104430000000eb0099030700100020005304070060
:1044400010002000fd0507000e00fa00889fbe0046
:104450008a9fbe008c1f78006007980001057800d5
:104460000204be00800578008a0078006c004700d6
:104470003301070000027800680662000430a100e2
:10448000e10f520012003a00e40147000a017800ef
:10449000ee0090000b0078003a000700e00f50009b
:1044a00002003a006000b800030037004e009000a0
:1044b000de009000b0fd0700008fbe002e019000ce
:1044c000be019000080141008981490015003700b4
:1044d000e20f520016003a0014002000e4014700e9
:1044e0000a017800ee0090000b0078004e020700f1
:1044f000e00f500002003a006000b80003003700ef
:104500004e009000de0090009bfd0700008fbe0073
:104510002e019000be0190000e0078002b050700d0
:104520000801be001e00be00b10407000b003700ea
:104530000000200001f82700e30f520005003200c0
:104540006000b800e40f520004003a00f0ff2f00b2
:10455000f1ff2700008fbe0001003700008fbe0072
:104560001e00be00e00f56000100320001f0a20064
:104570004f0678004f05be004f04be000080fa00d1
:10458000000006000a00fa00889fbe008a9fbe0055
:104590008c9fbe00000f780001047800120798007d
:1045a00083057800e922b8000006eb0001c3b300e0
:1045b000020037000804e8001c00200098cf10001b
:1045c000fcff3200800deb00bb1578008b047800f7
:1045d0000005eb0045c3b300960020002a00370019
:1045e000840f55001b003d00110009000605d8008e
:1045f0008000fd00e00f500003003a00e484440016
:10460000800ceb00b9147800184678000c06fb000b
:10461000cfe6de000c03b1000d80b100a200200047
:10462000030020001900be004407980025079800e9
:104630003607980013120700801c460081944e0034
:104640000a05e8004e029000ae0290003e03900082
:104650000b00370010002000010020009b0d4000df
:10466000db954800840f550005003a0098cf1200f2
:1046700003003400990c4000d99448000a05e80072
:104680000804e8001c002000984078000100fb00ae
:104690000003b100e90f5000d1ff3600840f550030
:1046a0000100340004057800e3c2b30083cf50005a
:1046b00001003a000804e800e00f55002d003a0020
:1046c000070037000081eb008081eb009b0d41006b
:1046d000db9549000804e8001c00200001003700b9
:1046e00001c3b30098cf1000f6ff3200210037005d
:1046f000840f55001c003d00110009000505d8007d
:104700008000fd00e00f500003003a00e484440004
:10471000800ceb00b9147800184678000c06fb00fa
:10472000cfe6de000c03b1000d80b100a200200036
:10473000030020001900be004407980025079800d8
:10474000d0110700801c460081944e000a05e80045
:104750000080eb008080eb009b0d4000db95480063
:10476000ae0290004e0290000804e8001c002000f9
:1047700001003700950020001800fb000003b10085
:10478000e90f5000daff36000c0378009d0020008e
:10479000809fbe00110009000d05d8008106780039
:1047a0004f00be00e08f560019003200e986160067
:1047b0001901be00e00f5100e08f590009003200de
:1047c0000d00e9004200dd0001d72100008040001b
:1047d0001000be003c079800aa110700808cbe00a4
:1047e0003e0390000a854600616ab9009b1d1200d5
:1047f0009b951a00060037006905550092002000bd
:10480000030020009b0d4100db954900e484540027
:10481000e80f5500040034001902be00e00f5200fa
:10482000e08f5a00f4ff3200e00f560034003200ef
:104830009840780053c6b30083cf50000300320085
:1048400053c4b30083cf50002c003a00d844780002
:10485000b1c2b30081cf540003003200d3c2b30011
:1048600083cf540002003a000804e800010037003a
:10487000814478006000b8000003eb00fc0f2e00bc
:104880005d5f2000100037008c0f50008d8f5800a6
:104890000b003c00a2002000030020004407980009
:1048a000781107000003b1000180b1004e029000b2
:1048b0000402fb00cfa2de000000420081804a001b
:1048c0000804e80016002000184278000401fb00ec
:1048d0000203b100e90f5100ebff3600d3c2b30071
:1048e00083cf540002003a0060001000e0801800fe
:1048f0009b0d4000db954800010037000c03780059
:104900009e019000e08f510005003200e00f53003f
:1049100001003a001e0478001e009000080878008c
:1049200092002000110009000205d8004f06be00c9
:104930004f05be004f04be000080fa0000000600d4
:104940000000fa00889fbe008a9fbe008c9fbe00b8
:1049500080067800810578001d04780088047800be
:10496000010037008904e800194578000a00fb00bf
:104970003a02070080007800e08f5000f9ff3a000b
:10498000d2c2b300824f550003003a008904e80008
:104990008100200004003700b2c2b300824f5500ee
:1049a00001003a008904e80019417800e3c6b30029
:1049b000834f510003003200e3c4b300834f510022
:1049c00025003a00d940780012c6b30082cf5000cb
:1049d000040032000000eb0012c4b30082cf50008c
:1049e0005b003a00d9407800e2c6b30082cf5000a5
:1049f000040032000000eb00e2c4b30082cf50009c
:104a000053003a000904780081c2b300d8cf1000e7
:104a10000a003a0088047800fcc5b30059457800c4
:104a20000a00fb00ff010700e00f5000fbff3a0007
:104a30008c4f5500f9ff32000100370088047800e0
:104a40004000200091c2b30099cf100040003a000e
:104a50000904e8003e00370093c6b300834f5100bd
:104a60000300320093c4b300834f51003c003a006e
:104a700059417800e3c6b300834f5100040032006f
:104a80000000eb00e3c4b300834f510030003a0054
:104a90005941780063c6b300834f510004003200cf
:104aa0000000eb0063c4b300834f510028003a00bc
:104ab00009047800010078003000b300d840780085
:104ac00092c6b30082cf50000300320092c4b300fc
:104ad00082cf50001e003a008800780051417800d3
:104ae000e3c6b300834f510003003200e3c4b300b8
:104af000834f510016003a005141780093c6b3002d
:104b0000834f51000300320093c4b300834f510020
:104b10000f003a005141780043c7b300834f510062
:104b20000300320043c5b300834f510008003a0030
:104b30005141780093c7b300834f51000300320006
:104b400093c5b300834f510001003a000104e8000f
:104b5000e08f550005003200880d78000300370013
:104b6000010078000000a00009047800880e780099
:104b70004f06be004f05be004f04be000080fa0085
:104b8000000006001200fa00889fbe008a9fbe0047
:104b90008c9fbe004007980061079800720798003c
:104ba00000027800010037000402e8001444780095
:104bb0000800fb00040f9800a80107000e0a9000ef
:104bc000e00f5000f8ff3a00284f9800d3c2b3001e
:104bd000834f54000300320083c1e900834f540027
:104be00002003a000402e80001003700234f980059
:104bf0007e009000e00f500005003500e10f5000ee
:104c00000300320043022000830f500007003400ed
:104c10006044b800ee009000e08f50007c0032004d
:104c20004e0190008208780079003700fe01900064
:104c3000e08f51000e003200f08f51001d003a004d
:104c400003c3b30094cf11001a003a0094419000be
:104c500085c7b30085cf51000300320085c5b3007e
:104c600085cf510013003a000482e800110037009c
:104c7000a00020007007980003c3b30094cf110078
:104c80000c003a009441900082c7b30082cf5100db
:104c900005003200810020007107980085c5b3002f
:104ca00085cf510003003a000482e8000201200091
:104cb0007207980003c3b3000400780001003700b6
:104cc0000000e80090cf1100fdff32008006780060
:104cd0001d0798006044b80000be2100004f780016
:104ce000fe009000610db9000e0037001e417800f3
:104cf000024650000a01be000800be00040f9800e2
:104d0000601007000c03fb00cfb3de008d06e80047
:104d10002807980039079800060440008784480057
:104d20000e0a90001d00fb00040f9800c7fc07004e
:104d30007e0190008000780000be21004104070041
:104d40000e0a9000e00f5000e8ff3a008d0f52006d
:104d500007003a006044b800ee019000e08f510077
:104d60002b0032004e0090008009780028003700a8
:104d70009e0090000180560053c021007e019000eb
:104d8000828141009301fb000300500016003300b4
:104d900010003a000c02fb00cfa2de000402540017
:104da00085825c00840f5400858f5c000900390007
:104db000cf91de000400be0010fc07000001be0021
:104dc0002e009000be009000800f5100818f59008e
:104dd000050032002002200020f388000084eb0050
:104de0008084eb0006003700d0c2b300ae489000cc
:104df00080cf500002003a0060041400e0841c00e0
:104e00006e019000e00f5100010032000d097800a2
:104e10000800be004f06be004f05be004f04be0096
:104e20000080fa00000006000a00fa00889fbe0019
:104e30008a9fbe008c9fbe00000f7800010478009e
:104e40001207980003057800e722b800840678006e
:104e50000006eb0001c3b300020037000804e800bd
:104e60001c00200098cf1000fcff3200000deb006a
:104e70003a1578008a0478008005eb002f0037008f
:104e80008d8f550019003d0073002000801f7800b1
:104e9000110009008305d8004f007800e08f500012
:104ea00003003a00e4844400800ceb00b91478005d
:104eb0001902be00442bdd00cc23de008703730003
:104ec0004423dd00849d210004005000219c21002a
:104ed00000804000104278000402fb00cfa2de00f8
:104ee000841c430085944b00110037001200200001
:104ef000030020001a0d41005a9549008d8f55007e
:104f00000c003a00839d210003005000249c2100e6
:104f10000000420071c0b30090cf100005003400c3
:104f20001200200003002000990c4100d994490090
:104f30008b05e8000804e8001c0020009841780078
:104f40008300fb0062012000809d21002307980060
:104f5000bc030700ae019000e00f5000c8ff3a000c
:104f60008d8f5500010034008d057800e1c2b3003b
:104f700081cf510001003a000804e800e08f55009d
:104f80002d003a00070037000081eb008081eb0024
:104f90001a0d41005a9549000804e8001c00200041
:104fa0000100370001c3b30098cf1000f6ff3200b4
:104fb000210037008d8f55001c003d00740020003b
:104fc000801f7800110009008405d8004f00780088
:104fd000e08f500003003a00e4844400800ceb00b2
:104fe000b91478001902be00442bdd00cc23de008a
:104ff000870373004423dd00819d210001005000e0
:1050000000804100104278000402fb00cfa2de00c5
:10501000841c430085944b008b05e8000080eb0066
:105020008080eb001a0d40005a9548000804e80003
:105030001c00200001003700239c21009800fb0089
:1050400062012000809d2100230798007d03070056
:10505000ae019000e00f5000d6ff3a008c017800be
:1050600074002000801f7800110009008405d8001a
:105070004f007800e08f500014003200e7801000ed
:105080004208dd001902be000000e9000300330001
:105090000402420085824a00fbff3700848cbe0078
:1050a0008b854000610ab9001a1d12001a951a007a
:1050b00006003700e7855500700020000100200041
:1050c0001a0d40005a954800e4845400e68f5500bc
:1050d000040034001902be00e00f5200e08f5a00b5
:1050e000f4ff32001a03be00423add00ce32de0089
:1050f000850272004232dd00048dbe00e00f5600d2
:10510000380032009840780003c7b30083cf5000c6
:105110000300320003c5b30083cf500030003a00d3
:10512000d8447800b1c2b30081cf540003003200ec
:10513000d3c2b30083cf540002003a000804e80051
:1051400001003700814478006000b8008001eb0066
:10515000fc0f2e005d5f2000140037008c0f500004
:105160008d8f58000f003c00a2002000030020009b
:10517000240798003507980046079800410f07005c
:105180000003b1000180b1004e0390000603fb0054
:10519000cfb3de000000430081804b00be029000d0
:1051a0002e0290000804e800130020001843780045
:1051b0000601fb000203b100e90f5100e7ff3600d2
:1051c000d6c2b30086cf540002003a00600010003f
:1051d000e0801800041d40000595480001003700dc
:1051e0008c0178009e009000e08f50000500320096
:1051f000e08f510001003a001e0478001e0190006b
:105200000809780072002000110009008205d8000a
:105210004f06be004f05be004f04be000080fa00de
:10522000000006000003b1000b0035009000b10043
:10523000080034008000b100070035009001b10083
:10524000040034007000b100030035009001b1008b
:1052500001003c0010000500000005006900e100ad
:10526000040035006d00e100030034000002b100cd
:105270000100320000000500100005000000fa00e7
:1052800030f38000e00f5000010032000000010008
:1052900040e621000080fa00000006000000fa004d
:1052a000889fbe008a1f780000047800e00f540039
:1052b0000f003a00880478000a9321000900d0000a
:1052c0000a00400010007800e00f50000400320097
:1052d000f2ff0700e00f500001003d000084eb00ea
:1052e0008904e800e78f5400f4ff340028003700f9
:1052f000000022001800600024003200a804900082
:105300000f00370009015100384090000000fb00f9
:1053100089007800e8ec0700e00f500007003c002f
:10532000280090004004980060049800500c9800f9
:105330001890a0000084eb00150037008084440022
:1053400048019000828f5400eeff39002800900041
:10535000400498009800780002c02000028160009c
:1053600001003a00380090000200240082806000b2
:1053700003003200600498000004eb0004003700d2
:10538000500c9800010478000100370000047800f8
:10539000080078004f0578004f04be000080fa0036
:1053a000000006000000fa00889fbe008a1f7800f7
:1053b0000005780001047800c800900068009000a3
:1053c000808f50000500390008007800d5020700e2
:1053d0008080eb00e00f5000180035008a44780010
:1053e000c80090008a58780041049800180078009e
:1053f000018020008100600005003a00014020008b
:105400000100600007003200ea4f550005003a0035
:1054100008007800a1ff07008080eb00e00f50003b
:1054200006003a0000c020001800600002003200b0
:1054300048009000600498008980fb00010078001b
:105440004f0578004f04be000080fa0000000600ff
:105450000000fa00889fbe008a9fbe008c9fbe009d
:1054600080057800010578000d4020002e003700ef
:10547000ca0090006a009000808f5000040039003c
:105480000a007800a7020700e00f5000390035003d
:105490001a8066000a003200a10020000b0078008c
:1054a0009d00070000067800e00f5600040032005f
:1054b0006184150008044600cfc4de0004003700f4
:1054c0000b00780032fb07000004be000006eb0072
:1054d0004a0090006a01900000015100cf91de0067
:1054e000880f5100898f5900020031000204be006c
:1054f0000006eb000801be008b007800e1fa07000f
:105500004a0090000800400040059800e00f560057
:10551000040032000a00780060ff0700e00f50002e
:1055200014003a00888545000040eb009b4f1000b6
:10553000cfff3a00008020001a0060000600320011
:105540000a00780055ff0700800078000080eb001b
:10555000e08f500008003a0000c020001a006000f0
:10556000050032004a009000600598000000eb0042
:10557000010037000080eb004f06be004f05be0063
:105580004f04be000080fa00000006000800fa0088
:10559000889fbe0080047800110020000900780078
:1055a0003b00070000047800e10f440032003200a5
:1055b000e10f540032003200e00f540006003200c8
:1055c0008000eb0009007800310007000900780036
:1055d000080001002a0037006022b8006033b800dc
:1055e000049fbe000697be006148b90061005000ec
:1055f000e0805800e50f5000e08f580019003e0091
:1056000000060100050037000d00370009003700d3
:10561000050037000d0037000f003700102424006c
:10562000214525000e0037006004250051042200aa
:105630000b00370090c42400c1042200080037008a
:1056400090e4240041052200050037003055240075
:1056500071642500020037004055240021d5240044
:10566000008fbe00819021000e00780078ff0700b7
:1056700010002000710107000800780001003700c9
:105680000000eb004f04be000080fa00000006009e
:105690000000fa000001e9000080eb00e50f510076
:1056a00007003e00808f5000050032000201d0004c
:1056b00063e2210003014100120078000109780033
:1056c0000080fa00000006000000fa0000017800e7
:1056d0000200780007003700854f52000a003200b0
:1056e0008301e80093427800e0cf5200faff3a00cd
:1056f0000000e80010427800e04f52000200320043
:1057000081017800f7ff370002005000cf80de00f3
:105710000080fa00000006000000fa008001eb00a3
:1057200010417800814f510001003a00800178005b
:10573000e04f510003003a00030078000080fa00b7
:10574000000006000000e800f5ff37000000fa0046
:1057500000017800020078000800370093427800ca
:10576000e0cf52000a003200854f520002003200a2
:105770008301e800f9ff37000000e80010427800dc
:10578000e04f52000200320081017800f3ff370041
:1057900002005000cf80de000080fa00000006000a
:1057a0000600fa00881f780000047800880078005e
:1057b0000e0078001207980023079800df0007000a
:1057c0001e019000ae0190001800be0057f90700be
:1057d000008cbe001e017800cf91de00080078002a
:1057e0007a0007004f0478000080fa0000000600ed
:1057f0000400fa00889fbe008a9fbe008c1f7800bc
:10580000008fbe000204be00e00f5100e08f59007f
:10581000680032006011b800b2f80700e00f5000d5
:1058200064003200e00f5400e08f5c002f003d0068
:1058300060041400e0841c000000200001f8230034
:105840006055b800acdc2100610164000700320043
:105850004259dd00ce51de00830171004251dd006e
:10586000020146001201be0030f907008904d10090
:105870000884d300e00f5400e08f5c000500320084
:1058800061054500e0854d00e40f5500e08f5d00a7
:10589000edff36000001be000000200001f82300eb
:1058a0003ff807000001be000e007800bcff0700b3
:1058b000e00f500037003d00e00f5400e08f5c0027
:1058c0003c003200e2112b00f3a420000e0078000f
:1058d000b3ff0700e00f50002e003d0061045400ac
:1058e000e0845c00f7ff3a002e0037006055b800f6
:1058f0000000200001f82300acdc210061016400fd
:10590000070032004259dd00ce51de0083017100f4
:105910004251dd00020146001201be0003f90700fa
:105920008984d1000884d300e00f5400e08f5c002c
:105930000500320061054500e0854d00e40f55008b
:10594000e08f5d00edff36000001be000e00780024
:1059500093ff0700e00f50000e003d00e00f5400e1
:10596000e08f5c0013003200e25a2c00d34927007c
:105970000e0078008aff0700e00f500005003d0090
:1059800061045400e0845c004240a900f6ff3c0042
:1059900004003700e00f500002003a000001200030
:1059a00003003700e10f500002003a0080002000a1
:1059b0008a0007001e00be004f0678004f05be009b
:1059c0004f04be000080fa00000006000400fa0048
:1059d000889fbe008004780009047800580278008f
:1059e000c720de0001007800f00fb200e1cf4000d8
:1059f00009003a00f407b200210020004b003a00f1
:105a0000110020000000eb00990f10004700320049
:105a10002100200045003700e00f500009003a0047
:105a200009007800020f78001307980010010700a2
:105a30008000eb001e0178009e019000810f500055
:105a40003a003c00cf80de00000141008181490026
:105a5000e00f2000800f5100e08f59000a00340051
:105a60000000200001f827000001eb00980f110052
:105a700002003d000000200001f82f00808cbe00d5
:105a80001100200029003700e00f5100e08f59007d
:105a9000050034004711dd00f00728001800600001
:105aa000000c710020003700180078000100280069
:105ab00081006000f00fb2000070a000000c7800c0
:105ac00061015100e0815900f70f4100e08f49006a
:105ad00004003d00010c7800800ceb008000eb001e
:105ae00012003700ef0f410003003d00800c7800ea
:105af000000ceb00700141000200ea0009003200d6
:105b000070011000980178008219dd0019017800f9
:105b10000011de00828c7100180178000010de0098
:105b2000000c7800188c70008080eb000100780079
:105b30004f04be000080fa00000006000000fa00da
:105b4000889fbe00800478000104780002f82700d6
:105b5000580161004711de00f00f2000800f510056
:105b60000a003a00800ceb00f207200018016100e7
:105b70002000200016003a0010002000910f1100b4
:105b8000130032002000200011003700e00f510008
:105b900005003a0001007800b50007000001780018
:105ba000e00f510008003c00f107280098806000d9
:105bb00000f02300008c700020f82f00800c4100c2
:105bc0000080eb0002003700800ceb000000eb00cf
:105bd0004f04be000080fa00000006000000fa003a
:105be000e5006000020032001002200003003700d0
:105bf00078006000020032002002200020f38800bc
:105c00000080fa00000006000000fa008001780021
:105c1000811f7800110009008200d8008001fd007a
:105c2000cf007800030878008219b8008280500005
:105c3000110098000080fa00000006000200fa003f
:105c4000090037000181400083f280000281410099
:105c5000120178008100e80091f28800000f7800be
